:020000040800F2
:10000000882A00200D020008414800081148000815
:100010003D480008152C0008394B0008000000007E
:100020000000000000000000000000006D48000813
:10003000712C000800000000434800086F480008C9
:1000400027020008270200082702000827020008EC
:1000500027020008270200082702000827020008DC
:10006000270200082702000827020008192C0008B0
:1000700027020008270200082702000827020008BC
:1000800027020008270200082702000827020008AC
:10009000270200082702000827020008270200089C
:1000A000270200082702000827020008270200088C
:1000B000270200082702000827020008270200087C
:1000C000270200082702000827020008270200086C
:1000D000270200082702000827020008C94A000872
:1000E000270200082702000827020008270200084C
:1000F000270200082702000827020008270200083C
:10010000270200082702000827020008270200082B
:10011000270200082702000827020008270200081B
:10012000270200082702000827020008270200080B
:1001300000F002F800F05AF80AA090E8000C82449F
:100140008344AAF10107DA4501D100F04FF8AFF27C
:10015000090EBAE80F0013F0010F18BFFB1A43F0A5
:10016000010318475CF000007CF00000103A24BF47
:1001700078C878C1FAD8520724BF30C830C144BF0C
:1001800004680C607047000000230024002500264E
:10019000103A28BF78C1FBD8520728BF30C148BFEA
:1001A0000B60704767290BF09D85642900F0808102
:1001B000782900F0B981732900F07D87002070470D
:1001C0001FB59DE8030000F0A9FC01F093FA0400BC
:1001D000002000210AF07CFE401C6060002000210D
:1001E0000AF08CFEE0601FBD10B510BD01F069FD86
:1001F0001146FFF7E5FF09F081F901F0BDFF03B4F7
:10020000FFF7F2FF03BC04F051FD000009488047EE
:1002100009480047FEE7FEE7FEE7FEE7FEE7FEE7E8
:10022000FEE7FEE7FEE7FEE704480549054A064B00
:100230007047000077480008310100088806002058
:10024000882A00208826002088260020704770B564
:10025000064600F047FC056806F10B0020F0070495
:10026000B4429CBF002070BD2B466A68BAB11068CA
:10027000A04210D304F1080188423CBF5068586086
:1002800007D35168101941601168091B016058605B
:100290001460101D70BD13465268002AE7D1214634
:1002A000284600F027FC0028DED170BD70B504465A
:1002B000051F00F017FC0068002C14BF446870BDD7
:1002C000002C18BFAC423CBF20466468F8D30168DC
:1002D0000A18AA4218BF456003D12A68054611448E
:1002E000016028684119A1421CBF6C6070BD616843
:1002F000696021680844286070BD70B50D460646E7
:10030000041F00F0EFFBD0F800C0C5B1E6B105F165
:100310000B0020F00703AB423CBF002070BD2068FB
:10032000984238BFDCF8042013D3C11A08292FD310
:10033000E01840F8041B2360FFF7B8FF28E03046C0
:10034000FFF7B4FF002070BD2846BDE87040FFF7FE
:100350007EBF002A18BFA2423CBF94465268F8D321
:100360000119914216D111680844984212D3C11A5A
:1003700008293CBF2060506808D35168E0184160EC
:10038000216812681144C91A01602360CCF8040086
:10039000201D70BD181FFFF75AFF050007D0216808
:1003A0000A1F211D00F0ACFA201DFFF77FFF284631
:1003B00070BD10B5044600F08DFB0068005DC006FE
:1003C00002D504F1200010BD204610BD0FB4044931
:1003D00010B503AA029800F073FE10BC5DF814FB80
:1003E000180000200FB41CB5084B06AA7B446946D0
:1003F0000090059800F035FE04460020694600F0A4
:1004000043FE20461CBC5DF814FB0000990C000064
:1004100070B5044685690068C10601D5302600E044
:100420002026C00707D070BDD4E90121304690478F
:10043000206A401C20626D1EF6D570BD70B5044662
:1004400085690078C00707D170BDD4E9012120205B
:100450009047206A401C20626D1EF6D570BD70B5B5
:100460000C460546012A05D02878800600D5EA69A1
:10047000002302E0012305E05B1C934202D2E05C12
:100480000028F9D1A869E618C01AA861286A18449A
:1004900028622846FFF7BCFF04E0D5E9012114F8E3
:1004A000010B9047B442F8D32846FFF7C7FF70BD51
:1004B0002DE9F0410646002410687529314616A53D
:1004C00010D0AFF30080002802DA404213A507E005
:1004D00031688A0701D512A502E0490704D511A5A4
:1004E000012401E0AFF3008000210A2206F1240775
:1004F00009E0B0FBF2FCB0FBF2F302FB1C00303071
:1005000078541846491C0028F3D123462A46304621
:10051000BDE8F04100F038BB000000002D000000F5
:100520002B0000002000000070B504460D46214657
:100530001068AFF300802188090502D50F4A7A447C
:1005400002E00E4A7A440E32002104F1240305E051
:1005500000F00F060009965D5E54491C0028F7D193
:1005600020780023000704D5702D02D009B10223A2
:1005700011322046BDE8704000F006BB3AEA0000A8
:100580002DE9F05F894604464FF0000ADFF824B1F8
:10059000FB44C0F820A02046E168884700287DD0B1
:1005A000252806D0D4E901219047206A401C20620A
:1005B000F1E700255F462046E16888472028064687
:1005C00007DB312E05D2B81910F8200C08B105430D
:1005D000F1E7A80701D525F00405C4F81CA0002701
:1005E000C4F818A02A2E09D0304604F058FB38B3BE
:1005F00004EB8708303EC8F8186019E059F8041B6E
:10060000204604EB87029161E1688847012F064686
:1006100018D1E069002820DA25F020051DE0D8F87F
:10062000180000EB800006EB40003038C8F81800D6
:100630002046E1688847064604F031FB0028EED1E9
:10064000012F0AD02E2E08D12046E16888477F1C52
:100650000646022F45F02005C4DBA069002803DA16
:10066000404245F00105A061E80701D025F01005E2
:10067000A6B1A6F14100192802D8203645F400653C
:100680004A463146204625604D46FFF78BFD60B156
:10069000012807D0ED1D25F0070000E007E000F17C
:1006A000080978E705F1040975E730467AE7206A1A
:1006B000BDE8F09F10EA00000FB400B58DB010A99E
:1006C000099000910B904FF0FF300A9000200C90A1
:1006D000064878440690064878446A4607900F9981
:1006E00009A800F081FF0DB05DF814FB330F000086
:1006F0004B0F0000401ECAB210F8011F8A4202D000
:100700000029F9D10020704730B505460B462A462E
:1007100013F8014B12F8010B08B1A042F8D01CB13C
:10072000002802D06D1CF1E7284630BD40EA0103E5
:10073000024630B59B0710D14FF0013400E008C2EB
:1007400008C91D1B9D4315EAC41FF8D013F0FF0113
:1007500002F8011B0DD01B0AF8E711F8013B002B32
:1007600002F8013B05D011F8013B002B02F8013BD8
:10077000F3D130BD0022CBB210F8011B994200D159
:10078000421E0029F8D11046704710B5431C02E004
:1007900010F8011B71B18107FAD14FF0013202C884
:1007A0008C1A8C4314EAC211F9D0C01A0A0603D07D
:1007B000C01E10BDC01A10BD0A0401D0801E10BD9D
:1007C0000902FCD0401E10BD40EA010370B59B0732
:1007D0002ED14FF00136042A2AD308C810C99D1B18
:1007E0009D43121F15EAC61517D0D8B2E1B2401AC0
:1007F00050EA056110D198B2A1B2401A50EA054101
:100800000AD123F07F4024F07F41401A50EA0521AD
:1008100002D1180EA0EB146070BDA342DBD018BA51
:1008200021BA884201D9012070BD4FF0FF3070BD60
:100830000AB9002070BD10F8013B11F8014B63B1FB
:10084000A3420AD1521E08D010F8013B11F8014B07
:100850001BB1A34201D1521EEDD1181B70BD421E27
:1008600012F8013F002BFBD111F8013B002B02F8DD
:10087000013BF9D17047032A40F2308010F0030C9D
:1008800000F0158011F8013BBCF1020F624498BFE3
:1008900011F801CB00F8013B38BF11F8013BA2F180
:1008A000040298BF00F801CB38BF00F8013B11F0FB
:1008B000030300F02580083AC0F0088051F8043B9B
:1008C000083A51F804CBA0E80810F5E7121D5CBF08
:1008D00051F8043B40F8043BAFF30080D20724BF3B
:1008E00011F8013B11F801CB48BF11F8012B24BFCF
:1008F00000F8013B00F801CB48BF00F8012B70471E
:1009000010B5203AC0F00B80B1E81850203AA0E8AA
:100910001850B1E81850A0E81850BFF4F5AF5FEADE
:10092000027C24BFB1E81850A0E8185044BF18C991
:1009300018C0BDE810405FEA827C24BF51F8043B38
:1009400040F8043B08BF7047D20728BF31F8023B8C
:1009500048BF11F8012B28BF20F8023B48BF00F820
:10096000012B70474FF000020429C0F0128010F0F4
:10097000030C00F01B80CCF1040CBCF1020F18BF7B
:1009800000F8012BA8BF20F8022BA1EB0C0100F00E
:100990000DB85FEAC17C24BF00F8012B00F8012BE1
:1009A00048BF00F8012B70474FF0000200B5134616
:1009B00094469646203922BFA0E80C50A0E80C507F
:1009C000B1F12001BFF4F7AF090728BFA0E80C5030
:1009D00048BF0CC05DF804EB890028BF40F8042B29
:1009E00008BF704748BF20F8022B11F0804F18BF96
:1009F00000F8012B704710B5044610F0030F08BF34
:100A000011F0030F40F015804FF0013E121FC0F2AD
:100A10000E8051F8043BA3EB0E0C2CEA030C1CEAED
:100A2000CE1C08BF40F8043BF0D0A1F1040102F154
:100A30000402521E08DB11F8013B002B00F8013BB9
:100A4000F7D11146FFF78EFF204610BD4FF0013C55
:100A500050F8042B51F8043B9A4221D1A2EB0C032D
:100A6000934313EACC1317D150F8042B51F8043BED
:100A70009A4215D1A2EB0C03934313EACC130BD18A
:100A800050F8042B51F8043B9A4209D1A2EB0C0315
:100A9000934313EACC13DBD04FF00000704700BF44
:100AA000D01A01BAB1FA81F101F0180122FA01F06D
:100AB000CB40C1F12001DBB2C0B2C01A2CFA01F365
:100AC000D11A914311EAC311E6D1704770477047BC
:100AD0007047704710B500F00DFE001D10BD00BF3F
:100AE000F1A30000004870472C06002070477047B3
:100AF0007047704738B504460A4600206946AFF390
:100B00000080002808BF38BD02460099204600F04A
:100B1000F9FD012038BD012001F0CCB8F8B5AFF3E4
:100B20000080054600200C46102000BF0646A8198C
:100B3000A0420DD9324669460020AFF3008007007D
:100B400008BF01F0B7F80098A04218BF0546C419C5
:100B5000FFF7C8FF05600746F01D20F007004619A3
:100B6000284600F00AF8B44208BFF8BDA21B31467F
:100B70003868BDE8F84000F0C5BD00210160C0E95B
:100B800001107047102070472DE9F0470D46994637
:100B90009246044600F124080168880604D5E069FD
:100BA00021F01001216000E00120A84201DD471B77
:100BB00000E00027A1697A1902EB0900081AA06178
:100BC0002078C00602D42046FFF722FC002608E069
:100BD000D4E901211AF806009047206A401C761CCF
:100BE00020624E45F4DB2078C0060AD52046FFF788
:100BF0000FFC06E0D4E9012130209047206A401C18
:100C00002062381EA7F10107F4DC07E0D4E90121D6
:100C100018F805009047206A401C2062281EA5F1A4
:100C20000105F3DC2046FFF709FC2078000602D519
:100C30000220BDE8F0870120FBE770472DE9FF4F58
:100C40000C461E464FF0FF378BB0D2E90001DDF8AD
:100C500060800A908A46C1F30A5505B93D460021D5
:100C600008464FF00000BAF1000F00F4400005DA2A
:100C700000EB80004FF4400101EA50004FEA905928
:100C8000B9F1010F00DDB9460A9850EA4A000ED0CA
:100C900044F61050A5F2FF3545432F14B8F1000F6C
:100CA0001ED07542291E1EDDC9F100021CE0B8F1FC
:100CB000010F4FF0000001D0302103E0F24305E0C6
:100CC0002154401CB042FBDB30460022002121545D
:100CD0000B99C1F80880C1E900200FB0BDE8F08F82
:100CE000BD1B6D1CDEE74A4600DA694206A800F02B
:100CF0006BFF06AB93E8070003AB83E807005046A1
:100D00000A9901F0A9FA8DE80700A0F500501F38F4
:100D100000900398002D0ADD42F21F014A46084464
:100D2000002303A90390684601F054FD09E0A0F5F3
:100D300000504A461F38002303A90390684601F07B
:100D400073FD8DE807000004000C03D04FF0FF3066
:100D5000410800E01046B8F1000F03D000220092D5
:100D600015461EE0751E05D400F0E6FC30326255D3
:100D70006D1EF9D5B3460122084302D000227F1C24
:100D800004E02078302801D100227F1E002A099734
:100D900084D01DE0112D07DA00F0CEFC3032625510
:100DA0006D1C50EA0102F5D1084302D00098C8B189
:100DB0000EE00021681E05E0235C625C635422544F
:100DC000401E491C8142F7DBAB46A81B401E099020
:100DD000002004F80B000B98099AC0F80880C0E9BD
:100DE000002B7AE711264FF0000857E72DE9F04F66
:100DF00088460446D21D22F0070191B0D1E90001D6
:100E0000CDE90A0103F09AFE02460B98C00F01D00B
:100E10002D2007E02068810701D52B2002E020214A
:100E200001EAC000032A099001D0072A05DB034626
:100E30004146204600F0CEFC0BE12078800601D52B
:100E4000E06900E00620B8F1650F814606D0B8F1F0
:100E5000660F18D0B8F1670F70D131E00020B9F1FA
:100E6000110F009001DB112301E009F101030AAA2F
:100E700001A90CA8FFF7E2FEDDE90C70002609F1DC
:100E80000105834647E001204B4600904FF00047A4
:100E90000AAA01A90CA8FFF7D1FEDDE90DB00C9953
:100EA0005D46002610B909F101000D18B9EB0500E7
:100EB00003D4C0F1FF3609F10105A5EB09002BE0D1
:100EC000B9F1010F01DA4FF001090020B9F1110F5A
:100ED0000090484601DD112300E003460AAA01A95B
:100EE0000CA8FFF7ABFEDDE90C704D4600268346EB
:100EF000207800070AD4AB4500DA5D4601A8012D31
:100F000004DD411911F8011C302907D04F4502DAE0
:100F100017F1040F04DA012082460FE06D1EEEE7A0
:100F2000002F02DCED1B3E4403E0781CA84200DDEC
:100F30007D1CB81B00F1010A4FF000472078000724
:100F400003D4AA4501DB4FF0FF3A0021B7F1004F6F
:100F50000DF143088DF8431024D002202B23002FDD
:100F600001DA7F422D230A21021EA0F1010000DCDC
:100F70005FB197FBF1FC97FBF1F201FB1C7C17467C
:100F80000CF1300C08F801CDEEE7A8F10100037078
:100F90002188090501D5452100E06521A0F101085E
:100FA00000F8011C09980FA9A1EB0807FF1D00B16B
:100FB0000120411901EBEA70A1693844081A401E6A
:100FC000A0612078C00602D42046FFF721FA0998D4
:100FD00028B1D4E901219047206A401C2062207882
:100FE000C00622D52046FFF713FA1EE0002E04DBD0
:100FF000B34502DD01A8805D00E03020D4E9012185
:101000009047206A401C2062761CAAF101005FEA2A
:10101000000A0AD100F06EFBC0680168405CD4E9A8
:1010200001219047206A401C2062281EA5F101057D
:10103000DCDC07E0D4E9012118F8010B9047206AB5
:10104000401C2062381EA7F10107F3DC2046FFF7A1
:10105000F5F9032011B041E601694A1C02610878E4
:10106000704700B58FB0CDE90131002105910549E8
:101070007944CDE9031011466846FFF781FA0FB0B5
:1010800000BD0000E5FFFFFF0A6802F8010B0A60DF
:10109000704710B5436913B1AFF3008001E0FFF76B
:1010A000DEF9012010BD127800F124010A7000223F
:1010B0004A700122EDE711684FF0FF32E9E70000C6
:1010C000074B70B50D467B44FFF7CBFF044628461F
:1010D00000F0ECFD10B14FF0FF3070BD204670BD48
:1010E000FF4A00002DE9FF4F06468BB00878FF2825
:1010F00006D0491C2D2805D000244FF0000908E037
:1011000000200CE00124F8E709EB8903491C00EBFF
:1011100043090878FF28F7D114B1C9F100008146CE
:10112000107800252C46AA4629462D2801D02B28C8
:1011300004D1521C2D2813D0002082468B461078F3
:10114000FF280FD04FF0000C0A21521CA5FB01789C
:1011500004FB018105FB0C11C5194BEB0104EEE703
:101160000120EAE7002108464FF00000BAF1000F25
:1011700002D000EB80004008C0F38157012F01DD51
:101180004FF0FF370E9955EA040009EB01080BD028
:101190004FF0020918F5FA7F16DA4FEACA70002FED
:1011A000706008DD012007E04FEACA70C6E900B0B0
:1011B0000FB0BDE8F08F0020306000F09FFAC0F85B
:1011C00000901821084616E0B8F5FA7F18DD002FC8
:1011D00002DAF748784401E0F6487844D0E9001094
:1011E000C6E9001040EACA70706000F087FAC0F8E3
:1011F0000090142108460FB0BDE8F04F0AF06FBD13
:10120000002108464FF00000B8F10001099002DA11
:10121000C7F1000200E03A4601DAC8F1000106A871
:1012200000F0D2FC06AB93E8070003AB83E80700AD
:1012300044F23E005BEA04010090584604D144F2B7
:101240001E012C465D460091210C0904014306D184
:101250000099240444EA15442D041039009104F047
:101260007F41014306D10099240244EA15642D020E
:101270000839009104F07041014306D1009924011E
:1012800044EA15742D01091F009104F04041014307
:1012900006D10099A40044EA9574AD00891E00911E
:1012A00004F00041084304D100986D196441401EC8
:1012B00000904FF001033A466846B8F1000FCDE9BF
:1012C000014503A902DD01F0C4FA01E001F097FA3B
:1012D000BAF1000F04460D4601D084F0004400210D
:1012E00008464FF00000099940F2FF77484010F09F
:1012F0000C0F07D124F00040284303D0C4F30A5058
:10130000B84212D100F0FAF9C0F80090C4F30A50C4
:10131000B8420AD1A8487844D0E90010C6E90010C4
:1013200004F000410843706042E7C6E900543FE71B
:101330002DE9FF4F1F464FF0000A4FF0FF3845469A
:1013400091B0D7E90146CDF83CA000F0D3F9C068D0
:101350000168405C1090B96912986D1C8847396A21
:10136000814688470028F6D1B9F1FF3F0AD0002E08
:1013700024F4D06411DDB9F12B0F08D0B9F12D0F91
:101380000BD102E0404615B013E744F48064B9691C
:1013900012986D1C8847761E8146600504A901D508
:1013A0002D2000E02B20002E01F1010B0DF1300863
:1013B0008DF810003FDDB9F1690F08D0B9F1490F80
:1013C00005D0B9F16E0F02D0B9F14E0F1CD13B46DA
:1013D00001A8009580E85002DDE912126FF00200CA
:1013E0000AF0E6FCC11CCED10EE0B96912986D1C62
:1013F000884781461398761E44F4007405600F9860
:10140000401C002E0F9016DDB9F1300FEDD0B9F170
:10141000780F02D0B9F1580F0DD10F9801280AD1D9
:101420003B46CDE90054DDE91212001F02960AF096
:10143000BDFCC11CA7D1109989453ED144F0800460
:1014400006E01399681CAAF1010A44F400740860CC
:10145000B9696D1C1298761E884730288146F0D0F5
:101460002BE01099894505D1200603D4761E44F05F
:10147000800418E0484603F012FC08B3761E0DF114
:1014800023018B4544F4007408D2A9F130000BF815
:10149000010B200607D5AAF1010003E0200602D4C3
:1014A0000AF101008246A00502D51399681C086064
:1014B000B96912986D1C88478146002ED1DC53E033
:1014C000002E51DDB9F1650F02D0B9F1450F4BD1B6
:1014D000A00549D5B9696D1C1298761E24F4407494
:1014E0008847002E81460CDD2B2804D0B9F12D0F42
:1014F00007D144F48074B96912986D1C8847761E30
:101500008146E00501D52D2100E02B2108F8011BC3
:10151000CDF8008021E0761E0DF13901884544F4B4
:1015200000740CD2A9F1300010F0FF0088F8000020
:1015300002D10099884509D908F1010806E0E005C3
:1015400001D51E4801E042F20F708246B969129837
:101550006D1C8847814613980560002E04DD4846BF
:1015600003F09DFB0028D6D1F96912988847FF2027
:1015700053468BF8000088F8000000200A900B907A
:1015800004AA0CA90AA8FFF7ADFDA00502D46FF0CC
:101590000100F8E614F0240F12D0E0071CD13868DF
:1015A000DDE90A12031D3B600068C0E9001213E088
:1015B00010E0000002E00000C6DE0000F1D8FFFFEE
:1015C0000AA9684603F0FAFAE00705D13868009ADC
:1015D000011D3960006802602846D4E602681144A3
:1015E0001378016018467047D1600549794451610C
:1015F00004497944116200211161114600F02AB9B1
:10160000EDFFFFFFCD010000426842B1016811F813
:10161000013B23B1521EC0E9001218467047012158
:10162000C160881E704742685AB1C368016843B9F7
:1016300083688B4205D0491E521CC0E9001200206D
:1016400070474FF0FF3070470FB4002300B589B0EA
:101650000CA900910B99CB60214B7B440693214B45
:101660007B44079304236FF00042CDE901321E4A08
:101670007A446B460892024600200AF095FB09B0B6
:101680005DF814FB70B506464FF0FF3015460C466A
:10169000324686B00091CDE90101694600200490F0
:1016A00004A8FFF7D1FF02460498211825B108B11C
:1016B000084600E020462860049800280DD0002A43
:1016C00002DD0098884208D03246081B6946009423
:1016D000CDE9010404A8FFF7B7FF06B070BD000014
:1016E000ABFFFFFFC3FFFFFF4F0100000048704743
:1016F0002406002000487047440600200048704738
:1017000024060020034640688C46002818BF884203
:101710003CBF03464068F8D318681844884207D095
:101720000CF1030020F00700001D411A521A014677
:10173000081D0A60FEF7BABD30B5B0F10A024FEAE3
:10174000900E71F100034EEA817EB0EB0E0061EB6A
:1017500091014FEA101E4EEA017E10EB0E0041EBA4
:1017600011114FEA102E4EEA016E10EB0E0041EB04
:1017700011214FEA104E4EEA014E10EB0E0041EBE4
:101780001141401841F100014FEAD00040EA417098
:101790004FEAD10110EB80054FEA810444EA9074CE
:1017A00044EB01046D1944EB0404521BA3414FF0B8
:1017B000000348BF0A3200D530BD401C41F1000192
:1017C00030BD10B50446FFF785F90068005D00F0F4
:1017D000010010BD2DE9F0411F46044603260168B3
:1017E000072A01F4006004DB08B116A505E016A580
:1017F00003E008B115A500E015A521F01000206058
:10180000A069C01EA0610FB1401EA0612046FEF776
:10181000FFFD4FB1D4E9012138469047206A401CB2
:101820002062C01C206206E0206AFAE7D4E90121A8
:1018300015F8010B9047761EF8D22046FEF7FEFD04
:10184000BDE8F0814E414E006E616E00494E46008B
:10185000696E66002DE9F34F4FF0000A0C465646BC
:101860008DB001200C9001F10C000B9062690B9877
:1018700001219047051E2DD0252D2CD0216A8847A7
:10188000C0B162690B9801219047216A88470028FE
:10189000F7D16269411E0B98904700E0761CA16960
:1018A0000D988847216A88470028F7D1E1690D988B
:1018B0008847DBE7A1690D988847A842074601D110
:1018C000761CD3E7E1690D9888477F1C02D1BAF1F5
:1018D000000F6FD06CE162690B9800273D463946D6
:1018E00090472A2804D162690B980121904701256D
:1018F000DFF8D08262690B9801219047A0F1300196
:101900000A290AD24745E5DC07EB870100EB4107CE
:10191000303FDFD445F01005ECE7E90601D46FF065
:1019200000476C280AD04C2814D0682815D06A28A3
:101930000DD074281CD07A281AD01DE062690B984B
:10194000012190476C2802D045F0040514E045F0D1
:1019500002050DE045F020050AE062690B980121BF
:101960009047682802D045F0080505E045F4006579
:1019700062690B9801219047C4E9015765283DD061
:1019800019DC58287AD00CDC452837D004DC25280F
:1019900026D041289ED131E046282FD0472899D122
:1019A0002CE05B2877D0612828D063287CD064287D
:1019B00023D15AE0F7E06F2848D008DC66281DD014
:1019C00067281BD0692821D06E2816D127E07028FF
:1019D00045D0732868D0752847D078280DD14DE0C0
:1019E000A1690D988847252805463FF469AFE1694C
:1019F0000D9888476D1C3FF46AAFD9E00D992346D6
:101A00006A466FF001000AF0CFF9C6E045F04000E9
:101A100023464FF000026060A80736D43EE0E80796
:101A20007FF447AF2068011D21600068290501D5BA
:101A300006701BE7290701D5068017E7A90703D51C
:101A4000F117C0E9006111E706600FE745F04000BB
:101A500023464FF008026060A80716D41EE040F647
:101A60000E0125EA0100606016E045F040002346C3
:101A70004FF00A026060A80707D40FE045F040006D
:101A80006060A80708D5234610220D996FF0010069
:101A9000AFF3008081E007E0102223460D996FF03C
:101AA0000100AFF3008078E04FF0000963284F4653
:101AB000C8464B46CB4602D05B2807D039E0207998
:101AC000C00601D40120A060012732E06269D4F889
:101AD0000CB00B98012190475E2807D14FF0010907
:101AE00049466269D4F80CB00B989047216939B91E
:101AF00000210A4603AB43F82120491C0829FADBE0
:101B0000D8B3216949B308F1010862690B98012132
:101B100090475D28F4D1B9F1000F09D0002003A946
:101B200051F82020D24341F82020401C0828F7DB40
:101B300003AB2069002820794FEA40701ED05B4635
:101B40002246CDF80080CDE901970D9900286FF06D
:101B5000010020DAAFF300801FE0C11703AA00EBF9
:101B6000D1614B1121F01F0102EB8302411A13686E
:101B70000120884003431360C7E719E00D9922460E
:101B800000286FF00100009702DAAFF3008004E054
:101B9000AFF3008001E0AFF3008000280ADA401CB8
:101BA00006D10C9820B14FF0FF300FB0BDE8F08F98
:101BB0005046FAE7E90701D10AF1010A064400207C
:101BC0000C9053E6CCCCCC0C2DE9F0478146164660
:101BD0008AB0354878440DC88DE80D003248784405
:101BE000801C03AC0DC884E80D0041F69B3008440E
:101BF000372190FBF1F290FBF1F5A5F1800501FB97
:101C000012041B3C02D56442012000E00020DFF8F2
:101C100098A080460027FA44AAF1BE0A0EE0E00729
:101C20000AD03246684607EB470101230AEB8101DF
:101C300000F0FAFD8DE8070064107F1C002CEED147
:101C4000194F7F44AE3F19E0E80715D007EB0410A9
:101C50000DF1180A90E80E008AE80E00C068F04204
:101C600001D1981908903246012306A903A800F073
:101C7000DBFD03AB83E807006D10641C002DE3D18E
:101C80004FF0010332466946B8F1000F03A802D0B5
:101C900000F0A0FD01E000F0C7FDC9E90001C9F8AE
:101CA00008200AB0BDE8F0875CD40000007B00F09B
:101CB0008000704710B500F06DFABDE8104000F0EC
:101CC00064BA7546FFF712FDAE46050069465346F5
:101CD00020F00700854618B020B5FEF7A5FABDE84C
:101CE00020404FF000064FF000074FF000084FF083
:101CF000000B21F00701AC46ACE8C009ACE8C00914
:101D0000ACE8C009ACE8C0098D46704710B5FFF7D4
:101D1000F5FC006810BD10B50446FFF7EFFC046049
:101D200010BD00002DE9FF4F1F464FF03C0987B062
:101D30004FF00042DDE9141001F10108DDF858A070
:101D400002EA405003900020059083460546044671
:101D50000490B969461E08988847AAF1010A0290C2
:101D6000BAF1000F3BDD02982E2815D0102100F0AB
:101D70004CFA00282EDB4FF0010B0599014317D0D8
:101D8000B9F1000F0BDB4A46C11700F02BFA0543EF
:101D90000C43A9F1040905E0012004900BE008B10F
:101DA00045F0010501200590049820B9361D02E098
:101DB000049800B1361FB969089808F101088847EE
:101DC000BBF1000FAAF1010A0290C9D00999C1F82C
:101DD0000080C5E70298702808D0502806D0F9691D
:101DE00008988847BBF1000F14D04FE00020029004
:101DF0000120BBF1000F049009D0B969089808F1DF
:101E000001088847AAF10109B9F1000F07DCF96957
:101E1000089888476FF001000BB0BDE8F08F2B28C1
:101E200004D02D280CD14FF0FF300490B9690898E8
:101E300008F101088847A9F10109B9F1000FE6DDB1
:101E4000411CE4D00A2100F0E0F90028DFDB029910
:101E500008F1010801EB810100EB41000290B96932
:101E6000089888470A2100F0D0F9099AA9F10109D8
:101E7000B9F1000FC2F8008001DD0028E7DAF96946
:101E8000089888470499029800FB016655EA040007
:101E900004D004F04041090002D006E0039898E025
:101EA000A40044EA9574AD00B61E04F00041080099
:101EB00002D16D196441761E159810F0240F03D0DD
:101EC0004FF00B095C4803E04FF028096FF07D00EC
:101ED0008246564507DAAAEB06018944B9F1410F5B
:101EE00001DD4FF0410901200021A9F1010200F0BC
:101EF00079F9024628400B462140084301D00121D0
:101F000000E00021501E029143F1FF3128402140A2
:101F1000084301D0012000E000200299834651EAE5
:101F20000B014FD0002108464FF00000039900F448
:101F3000400039B100EB80004FF4400100EBD0705D
:101F400001EA60008015012802DD4FF0FF3000E05B
:101F500013D0401C36D0029860B3BBF1000F0CD1F7
:101F60004A460120002100F03DF928402140084365
:101F700001D0012000E00020E0B101204A4600210C
:101F800000F030F9034640190A4661412D1A8C4190
:101F900011D3B9F1400F09DD159810F0240F02D0CC
:101FA000AAF1340603E0AAF1170600E0761C00252A
:101FB0004FF0004406E05B1E42F1FF3220EA0305C9
:101FC00021EA0204CAF10100B04206DA1B49039873
:101FD00008430190002000900EE0039AC4F3D3213F
:101FE000E80A0A43164940EA44500A433146CDE91B
:101FF0000002684602F048FE159810F0240F0BD03E
:102000001598C00715D13868DDE90012031D3B6043
:102010000068C0E900120CE002A8694602F0CEFD9B
:102020001598C00705D13868029A011D396000680B
:1020300002604046F0E6000002FCFFFF0000F07F77
:102040000000F03F2DE9FF4F92461D4685B04FF04E
:102050000041DDE9124BDDE914727F1E01EA4B50AD
:10206000414940F0FF4940EA0108002122F02000E8
:102070004928049102D04E2828D04CE03BA00126EC
:1020800007C88DE80700A9690698641C88477F1E69
:10209000014606D41DF8060018B121F02001814246
:1020A0000BD0E96906988847032E34D0082E32D029
:1020B0006FF0010009B0BDE8F08F761C032E01D04F
:1020C000082EE0D1601CCAF80000DCE7A969069878
:1020D000641C88477F1E2AD420F02000412826D186
:1020E000A9690698641C88477F1E20D420F0200030
:1020F0004E281CD1A9690698641C88477F1E48F4A5
:10210000002849F48009CAF8004001D4282806D0E4
:10211000E969069888475FEACB7012D022E0A96986
:102120000698641C88477F1E01D4002803DAE969F9
:1021300006988847BCE72928F1D1641CCAF80040FA
:10214000E9E71BF0240F07D028680499031D2B60D2
:102150000068C0E9001805E02868021D2A600068D0
:10216000C0F800902046A5E70000F07F494E4649A0
:102170004E4954590000000010B50446AFF30080EA
:102180002046BDE81040FEF73AB8002801D002F022
:102190008DBD704710B5012805D0002103A000F0C7
:1021A00042F8012010BD09A1F8E700005349475249
:1021B000544D454D3A204F7574206F662068656117
:1021C00070206D656D6F7279000000003A204865DF
:1021D0006170206D656D6F727920636F72727570BA
:1021E00074656400B2F120030AD5C2F1200301FA3C
:1021F00002F120FA03F300FA02F041EA030170470A
:1022000000FA03F14FF0000070473A2800D230384E
:1022100020F02002412A01D3A2F13700884201D3E5
:102220004FF0FF30704770B505460C460A2000E0BD
:102230006D1C02F03DFD35B128780028F8D102E090
:10224000641C02F035FD14B120780028F8D1BDE8F7
:1022500070400A2002F02CBD5FEA400C08BF91F0EC
:10226000000F4FEA8C234FEAC12243EA51514FEA53
:102270001C5018BF00F5F0404FEA300018BF41F085
:1022800000415FEA6C5C00F02980BCF1FF3F08BFB1
:1022900040F080407047130C06BF12044FF0100C42
:1022A0004FF0000C130E04BF12020CF1080C130FB8
:1022B00004BF12010CF1040C930F04BF92000CF147
:1022C000020CD30F04BF52000CF1010C11464FF069
:1022D0000002A0F11F00A0EB0C00704711F0004FAE
:1022E00008BF704731F000413FF4D5AF0B0C06BF7B
:1022F00009044FF0100C4FF0000C0B0E04BF090244
:102300000CF1080C0B0F04BF09010CF1040C8B0F2E
:1023100004BF89000CF1020CCB0F04BF49000CF183
:10232000010CCCF12003A0EB0C0022FA03F302FA1B
:102330000CF241EA030100F10100704720F07F4CEC
:1023400080EA030023F07F47ACEB070303F57C53DF
:1023500000F0004003F1FF032DE980494FEA154BDF
:1023600009B44FEA144325EA0B4E24EA03480FF25E
:10237000042606EB132749083E785FEA320203FB86
:102380000667C7F5000707FB06F64FEA54374FEA22
:10239000D64606F1020607FB066CCCF1005C4FEA5C
:1023A0001C472CEA074C07FB06F40CFB06F504EB74
:1023B00015464FEA961634BF00204FF000404FEA12
:1023C000D13706FB07FC4FEA1C4C0CFB0BF7D21B6A
:1023D00003FB0CF761EB07010CFB0EF7B0EB0740BA
:1023E00072EB17420CFB08F734BFA2EB0742B2EBCB
:1023F000074261EB17414FEA0C444FEA910706FB95
:1024000007FC4FEA1C4C0CFB0BF7B0EBC74072EB20
:10241000573203FB0CF734BFA2EBC742B2EBC74203
:1024200061EB57310CFB0EF7B0EBC70072EB577244
:102430000CFB08F734BFA2EBC702B2EBC70261EB9B
:102440005771039F4FEA816141EA921104EBCC047A
:102450004FEAD1374FEA826206FB07FC42EA90124C
:102460004FEA80604FEA1C4C0CFB0BF7D21B03FBBE
:102470000CF761EB07010CFB0EF7B0EB074072EBBA
:1024800017420CFB08F734BFA2EB0742B2EB07423E
:1024900061EB17414FEA8C554FEA910704EB9C24FE
:1024A00006FB07FC4FEA1C4C0CFB0BF7B0EBC740DC
:1024B00072EB573203FB0CF734BFA2EBC742B2EB0F
:1024C000C74261EB57310CFB0EF7B0EBC70072EB64
:1024D00057720CFB08F734BFA2EBC702B2EBC7027E
:1024E00061EB577115EB4C254FEA816141EA92117E
:1024F0004FEA82624FEAD13742EA901206FB07FCAC
:1025000044F100044FEA80604FEA1C4C0CFB0BF7CF
:10251000D21B03FB0CF761EB07010CFB0EF7B0EBD2
:10252000074072EB17420CFB08F734BFA2EB0742DF
:10253000B2EB074261EB174115EB1C154FEA8131F5
:1025400041EA92414FEA823242EA90424FEA8030B9
:102550004FEA0C7644F1000448EA03434EEA0B4884
:102560004FF0000EB2EB080C71EB030724BF62467C
:1025700039464EEB0E0E4FF0000B00185241494108
:102580004BEB0B0BB2EB080C71EB03077BF1000B71
:1025900024BF624639464EEB0E0E4FF0000B00187A
:1025A000524149414BEB0B0BB2EB080C71EB0307AB
:1025B0007BF1000B24BF624639464EEB0E0E51EA0A
:1025C000020718BF46F0010616EB0E7655F1000221
:1025D00054F1000103D5BDE88901BDE80088BDE8DC
:1025E0008901BDE80048B619524141EB0101A3F150
:1025F0000103704780807F7E7D7C7B7A7978777657
:1026000076757473727171706F6E6E6D6C6C6B6ACF
:102610006A6968686766666564646363626161606D
:10262000605F5F5E5E5D5D5C5C5B5B5A5A595958EA
:102630005857575656555555545453535252525154
:10264000515050504F4F4F4E4E4D4D4D4C4C4C4BAA
:102650004B4B4A4A4A4949494848484747474746F1
:10266000464645454544444444434343434242422D
:102670004241414146EA0646A3F570534FEA1646E9
:1026800046EA42564FEAD22242EA415210B54FEA98
:10269000D121A3F1010300F02FF820F0004000F158
:1026A000020C00F0004701EB00501146BCF5006F32
:1026B00040EA070000D210BDBAF1000F0AD01CB5E5
:1026C00003B44FF004004FF004014FF000000FBCC2
:1026D000BDE810404FF00001BBF1010FB9BF044845
:1026E0004FF0FF310348002140EA070010BD00BF52
:1026F000FFFFEF7F0000F07F002B9C4630D4770077
:102700002BD01CB54FEA370703B44FF010004FF041
:102710001001BAF1000F06D0BCF1000FDCBF40F091
:10272000080040F008014FF000000FBCBDE8104069
:102730000BF1010BBBF1010F08BF5FEA170722BFC6
:1027400012F1010211F101014FF0004143F10003C8
:1027500000F0004043EA00007047F9D35708D0E783
:1027600046EA064613F1400F4FEA16461FDD13F105
:10277000200FDFBF16430A46002120335B42BED044
:10278000C3F1200746EA064602FA07F74FEA164663
:1027900046EA0706C3F1200722FA03F201FA07F717
:1027A00021FA03F14FF0000342EA0702A7E746EAE5
:1027B000020646EA06464FEA164646EA0106BCBF4E
:1027C00046EA0646360C4FF000034FF000024FF089
:1027D000000194E72DE9804C9A46934670B491E845
:1027E000380007C831EA400C48BF34EA430C03D52F
:1027F000FFF7A4FDFFF780FFF0BCBDE8008C2DE9DA
:10280000804C9A46934670B491E8380007C831EA84
:10281000400C48BF34EA430C03D5FFF78FFDFFF7A8
:1028200029FFF0BCBDE8008C2DE9804C9A46934608
:1028300070B491E8380007C810F0804F08BF13F05B
:10284000804F03D100F01AF8FFF756FFF0BCBDE847
:10285000008C2DE9804C9A46934670B491E838007C
:1028600007C810F0804F08BF13F0804F03D100F06D
:1028700005F8FFF7FFFEF0BCBDE8008C20F07F47B5
:1028800080EA030023F07F4C07EB0C03A3F57C5395
:1028900000F00040A3F1FE0392F0000F00F0B380BF
:1028A00095F0000F00F077802DE901494FEA1140C3
:1028B0004FEA144621EA004800FB06FC24EA0647DA
:1028C00008FB06F607FB08F800FB07F718EB0648BD
:1028D0004CEB164C4FEA124B18EB07484FEA1546E3
:1028E0004CEB174022EA0B4E0BFB06FC25EA064791
:1028F0000EFB06F607FB0EFE0BFB07F71EEB064E64
:102900004CEB164C4FF000061EEB074E4CEB174BF2
:1029100018EB0B0840F1000018EB0E0B58EB000809
:1029200040F100008F1A4FF000013CBFC943661B05
:1029300014BFB5EB040C00213CBFC943F61B4FEAA2
:1029400017444EEA8E0E27EA04454FEA1C4704FB63
:1029500007622CEA074C05FB07F70CFB05F604FBA6
:102960000CFC16EB074642EB174216EB0C4642EB0B
:102970001C421BEB060658EB0202414146EA9E064A
:1029800001D5BDE80189B619524141EB0101A3F11E
:102990000103BDE801894FEA14454FEA114724EAD3
:1029A000054621EA074C05FB07F406FB07F70CFB7D
:1029B00006F105FB0CFC11EB074144EB17444FEA11
:1029C000124711EB0C4144EB1C4422EA074C05FB77
:1029D00007F206FB07F70CFB06F605FB0CFC16EBF3
:1029E000074642EB174216EB0C4642EB1C456A18B1
:1029F00054F1000148BF7047B619524141EB010143
:102A0000A3F10103704795F0000F37D04FEA114250
:102A10004FEA144721EA024624EA074C02FB07F179
:102A200006FB07F70CFB06F402FB0CFC14EB074457
:102A300041EB17414FEA154714EB0C4441EB1C41A5
:102A400025EA074C02FB07F506FB07F70CFB06F629
:102A500002FB0CFC16EB074645EB174516EB0C4644
:102A600045EB1C42121951F1000148BF7047B619DD
:102A7000524141EB0101A3F1010370474FEA1445B4
:102A80004FEA114724EA054621EA074C05FB07F106
:102A900006FB07F70CFB06F24FF0000605FB0CFCEB
:102AA00012EB074241EB174112EB0C4251EB1C4178
:102AB00048BF7047921841EB0101A3F10103704731
:102AC00070B5044600252068806800F00100F0B170
:102AD0002068806820F001002168886000F008FF0D
:102AE00005460EE000F004FF401B022809D9A06A49
:102AF00040F01000A062E06A40F00100E0620120B6
:102B000070BD2068806800F001000028EAD1002034
:102B1000F6E770B505466C6AA06A00F05000E0B9AF
:102B2000A06A40F40070A0622068806800F4602011
:102B3000B0F5602F0DD1207B58B9A06A20F48070C9
:102B4000A062A06A00F4805018B9A06A40F00100A9
:102B5000A062204600F040FA03E0206A016B28469C
:102B6000884770BD70B505466C6AA06A40F04000A9
:102B7000A062E06A40F00400E062204600F02EFA15
:102B800070BD70B50446656A284600F026FA70BD2F
:102B900038B504460025002000902068806800F0C9
:102BA000010080BB2068806840F0010021688860D7
:102BB000164800681649B0FBF1F0009002E000985A
:102BC000401E009000980028F9D100F091FE0546C3
:102BD00013E000F08DFE401B02280ED9A06A40F0E1
:102BE0001000A062E06A40F00100E06200BF002037
:102BF00084F8240000BF012038BD2068806800F000
:102C000001000028E5D00020F6E7000010000020B9
:102C100040420F0000BFFEE70848006800F00200D5
:102C200050B101200649087000BF0448406840F0D8
:102C300002000249486000BF7047000000000240E7
:102C40003900002030B590F840500124AC40C56BED
:102C50006C60046863604468102C04D10468A2604E
:102C60000468E16003E00468A1600468E26030BDCC
:102C70007047000070B50446B3F5804F13D1D1E919
:102C8000000540EA05108D6840EA05208D6928435B
:102C90008D8940EA054054F82250064E35402843BD
:102CA00044F8220003E06FF0704044F82200002056
:102CB00070BD00000000F0CF70B50246086852F801
:102CC000200020F001000E6842F8260088680828DD
:102CD00001D1402300E00023486818438E68304348
:102CE000CE6830430E6930434E693043CE6930437D
:102CF0000E6A30434E6A30438E6A3043CE6A3043A8
:102D00000E6B40EA060488690443486B0443074D90
:102D100045F4806545F4E025086852F82000A84392
:102D200020430E6842F82600002070BD7FFB08009B
:102D300010B50346D1E9000440EA04108C6840EA6B
:102D400004208C8940EA0444088A401E44EA005466
:102D5000087D801E44EA00608C692043541C53F8AF
:102D6000244004F040442043541C43F82400002035
:102D700010BD0000F8B5044600260020009000BFFA
:102D800094F82400012801D10220F8BD012084F824
:102D9000240000BF2046FFF793FE0646002E62D1B6
:102DA000A06A20F4885040F00200A062022000F0E7
:102DB0004FFE30490968B1FBF0F04000009002E09E
:102DC0000098401E009000980028F9D12046FFF797
:102DD000DFFE2068806840F008002168886000F00D
:102DE00087FD054611E000F083FD401B0A280CD941
:102DF000A06A20F0020040F01000A06200BF002096
:102E000084F8240000BF0120BFE72068806800F03C
:102E100008000028E7D12068806840F0040021689D
:102E2000886000F065FD054611E000F061FD401B83
:102E30000A280CD9A06A20F0020040F01000A0621D
:102E400000BF002084F8240000BF01209DE7206817
:102E5000806800F004000028E7D1A06A20F002009A
:102E600040F00100A06200BF002084F8240000BFF1
:102E700030468AE71000002038B5024600230020C3
:102E8000009000BF92F82400012801D1022038BD33
:102E9000012082F8240000BF4868072812D2106879
:102EA000406B0C79641E04EB84051F24AC40A043E6
:102EB0000D796D1E05EB85050C68AC402043146848
:102EC000606327E048680D2812D21068006B0C7907
:102ED000E41F04EB84051F24AC40A0430D79ED1FD3
:102EE00005EB85050C68AC4020431468206311E0B5
:102EF0001068C06A0C790D3C04EB84051F24AC40BB
:102F0000A0430D790D3D05EB85050C68AC402043D1
:102F10001468E06208680A2812D31068C0680C7848
:102F20000A3C04EB44050724AC40A0430D780A3D5D
:102F300005EB45058C68AC4020431468E0600FE069
:102F4000106800690C7804EB44050724AC40A043EA
:102F50000D7805EB45058C68AC4020431468206172
:102F60000868102802D00868112827D1174C10686B
:102F7000A0421ED11068806800F40000F0B910680B
:102F8000806840F400001468A0600868102815D11B
:102F90000F4800680F4CB0FBF4F000EB80004000DD
:102FA000009002E00098401E009000980028F9D19F
:102FB00004E0906A40F020009062012300BF0020EE
:102FC00082F8240000BF184661E700000024014099
:102FD0001000002040420F0070477047704700000B
:102FE0002DE9F0410446002700250026A84614B923
:102FF0000120BDE8F081A06810B1207D00B100BFC4
:10300000A06A30B90020E06284F82400204600F075
:1030100097F82046FFF754FD0746A06A00F010001D
:10302000002873D1002F7ED1A06A20F4885040F090
:103030000200A0623F4AD4E90001904208D1E06951
:10304000B0F5402F02D14FF4002002E0E06900E02B
:10305000E0690143207B41EA40000643A068B0F5E7
:10306000807F02D0A068012802D14FF4807000E078
:1030700000200543207D012811D1207B38B9A069AB
:10308000401E4FF4006141EA4030054307E0A06A6A
:1030900040F02000A062E06A40F00100E062206899
:1030A000406820F4694028432168486020688068AF
:1030B00021490840304321688860A068B0F5807FCE
:1030C00002D0A068012802D14FF4807000E00020F7
:1030D000B0F5807F03D1208A401E4FEA0058206857
:1030E000C06A20F4700040EA08002168C8622068C5
:1030F000806812490840B04209D10020E062A06A0D
:1031000020F0020040F00100A06211E00BE0A06A94
:1031100020F0020040F01000A062E06A40F00100E0
:10312000E062012704E0A06A40F01000A0620127DD
:1031300038465EE7003C0140FDF7E1FFFE0E1FFF51
:10314000704700002DE9F04104460D461646002761
:1031500057492068884203D056492068884205D1E3
:103160005348001D006800F4702000E00020002893
:103170007ED100BF94F82400012802D10220BDE8CE
:10318000F081012084F8240000BF2046FFF700FDF5
:103190000746002F6DD1A06A40F60161884340F4D4
:1031A0008070A06243492068884209D14048001DD0
:1031B000006800F4702008B9012002E0002000E05F
:1031C000012078B1A06A20F48010A06220684068D5
:1031D00000F4806000B3A06A20F4005040F48050F6
:1031E000A06219E0A06A40F48010A0623049206813
:1031F000884203D02F492068884205D12C48001D01
:10320000006800F4806000E0002028B1A06A20F48B
:10321000005040F48050A062A06A00F4805020B1B9
:10322000E06A20F00600E06201E00020E06200BFFA
:10323000002084F8240000BF1F48216A88621F48CC
:10324000216AC8621E48216A08636FF00200216883
:1032500008602068806840F4807021688860226877
:1032600002F14C0133462A46206A00F045F901E09C
:103270001AE014E02068806800F46020B0F5602F48
:1032800006D12068806840F4A000216888600CE0C6
:103290002068806840F480102168886005E000BFE5
:1032A000002084F8240000E00127384667E700008A
:1032B0000024014000280140132B0008832B000844
:1032C000652B000870B50446002594F821000228FB
:1032D00003D00420A0630125C1E02068006820F02D
:1032E0000E00216808602068006820F00100216855
:1032F00008605C492068884252D95A497839206868
:10330000884201D1012047E056496439206888424B
:1033100001D1102040E0534950392068884201D142
:10332000801539E04F493C392068884201D180142A
:1033300032E04C4928392068884202D14FF480306D
:103340002AE0484914392068884202D14FF480109D
:1033500022E044492068884201D140041CE04249EF
:103360002068884201D1012016E03F4914312068CD
:10337000884201D110200FE03B4928312068884263
:1033800001D1801508E038493C312068884201D1DC
:10339000801401E04FF480303349091F086051E088
:1033A000304978392068884201D1012047E02D4911
:1033B00064392068884201D1102040E02949503901
:1033C0002068884201D1801539E026493C392068BF
:1033D000884201D1801432E022492839206888428D
:1033E00002D14FF480302AE01E4914392068884207
:1033F00002D14FF4801022E01A492068884201D19E
:1034000040041CE018492068884201D1012016E0E0
:10341000154914312068884201D110200FE012496B
:1034200028312068884201D1801508E00E493C31DE
:103430002068884201D1801401E04FF480300949AE
:1034400080394860012084F8210000BF002084F802
:10345000200000BF606B10B12046616B8847284692
:1034600070BD0000800002400804024001460022B6
:1034700009B9012070471E4B086898420BD21D4BBA
:103480000868C01A1423B0FBF3F0800008641948E0
:103490000838C8630AE0164B0868C01A1423B0FB4A
:1034A000F3F08000086412480838C863022081F8ED
:1034B00021000868026843F6F0708243D1E90103F5
:1034C0001843CB6818430B6918434B6918438B6941
:1034D0001843CB69184302430868026000208863E0
:1034E000012081F82100002081F8200000BFC1E701
:1034F00008040240080002402DE9F04104460D4650
:1035000016461F464FF0000800BF94F8200001281F
:1035100002D10220BDE8F081012084F8200000BF24
:1035200094F8210001282CD1022084F821000020E9
:10353000A0632068006820F00100216808603B4615
:10354000324629462046FFF77DFBE06A30B120680D
:10355000006840F00E00216808600BE020680068F9
:1035600020F00400216808602068006840F00A002C
:10357000216808602068006840F001002168086048
:1035800006E000BF002084F8200000BF4FF00208D2
:103590004046BFE72DE9F847024600239C467BE101
:1035A0004FF0010808FA03F4D1F8008008EA04009B
:1035B000A0427DD1DFF8F4A2D1F80480A8EB0A097B
:1035C000D0453AD014DCB8F1030F50D009DCB8F183
:1035D000000F31D0B8F1010F1CD0B8F1020F49D162
:1035E00020E0B8F1110F18D0B8F1120F42D11EE04F
:1035F000B9F5881F25D006DCB9F5803F20D0B9F594
:10360000801F37D11AE0B9F5001F18D0B9F5041F93
:1036100030D117E0D1F80CC02DE0D1F80C8008F1C2
:10362000040C28E0D1F80C8008F1080C23E0D1F854
:103630000C8008F10C0C1EE000BF00BF00BF00BFF3
:1036400000BF00BFD1F80880B8F1000F02D14FF0E1
:10365000040C0BE0D1F80880B8F1010F03D14FF052
:10366000080C146102E04FF0080C546103E04FF0C5
:10367000000C00E000BF00BFFF2801D8904601E029
:1036800002F104084646FF2802D84FEA830803E007
:10369000A3F108084FEA88084746D6F800804FF0A3
:1036A0000F0909FA07F928EA09080CFA07F900E0F6
:1036B0007AE048EA0908C6F80080D1F8048008F0EA
:1036C0008058B8F1805F6FD100BFDFF8E481D8F88F
:1036D000188048F00108DFF8D891C9F81880C8466A
:1036E000D8F8188008F00108CDF8008000BF00BFAE
:1036F0004FEAB9384FEA930958F829504FEA8378CE
:103700004FEA18794FF00F0808FA09F825EA08057A
:10371000DFF8A081424502D14FF0000824E0DFF835
:103720009881424502D14FF001081DE0DFF88C81FD
:10373000424502D14FF0020816E0DFF8848142458D
:1037400002D14FF003080FE0DFF87881424502D143
:103750004FF0040808E0DFF87081424502D14FF0D5
:10376000050801E04FF006084FEA83794FEA19791E
:1037700008FA09F848EA0505DFF850814FEA93098D
:1037800048F82950D1F8048008F48038B8F5803F13
:103790000BD1DFF83C81D8F8008048EA0008DFF858
:1037A0003091C9F800800AE075E0DFF82481D8F88C
:1037B000008028EA0008DFF81891C9F80080D1F8E5
:1037C000048008F40038B8F5003F0ED1DFF800811E
:1037D00008F10408D8F8008048EA0008DFF8F09003
:1037E00009F10409C9F800800DE0DFF8E48008F170
:1037F0000408D8F8008028EA0008DFF8D49009F11E
:103800000409C9F80080D1F8048008F48018B8F5DC
:10381000801F0ED1DFF8B88008F10808D8F80080C2
:1038200048EA0008DFF8A89009F10809C9F8008003
:103830000DE0DFF89C8008F10808D8F8008028EA3D
:103840000008DFF88C9009F10809C9F80080D1F868
:10385000048008F40018B8F5001F0ED1DFF870805E
:1038600008F10C08D8F8008048EA0008DFF86090FA
:1038700009F10C09C9F800800DE0DFF8548008F167
:103880000C08D8F8008028EA0008DFF8449009F115
:103890000C09C9F800805B1CD1F8008028FA03F8F5
:1038A000B8F1000F7FF47CAEBDE8F887000011107E
:1038B0000010024000080140000C014000100140CF
:1038C0000014014000180140001C014008000140A4
:1038D00000040140024693680B400BB1012000E058
:1038E000002070470AB1016101E00B0403617047D9
:1038F0000148006870470000240000200348006869
:1039000003490978084401490860704724000020F1
:103910002C00002010B50848006840F0100006494F
:103920000860052000F080F80F2000F007F800F094
:103930002BF8002010BD00000020024070B50446A6
:103940000E4800784FF47A71B1FBF0F00C49096829
:10395000B1FBF0F5284600F091FD08B1012070BDE3
:10396000102C07D200222146501E00F01EF80548F8
:10397000046001E00120F2E70020F0E72C000020C5
:10398000100000202800002070470146084600284B
:1039900009DB00F01F0301229A4043099B0003F159
:1039A000E023C3F8002100BF70472DE9F05F804697
:1039B0000D461646002701F0D5F8074639462A4637
:1039C000334601F00700C0F1070ABAF1040F02D92B
:1039D0004FF0040A01E0C0F1070AD14600F1040AE1
:1039E000BAF1070F02D24FF0000A01E0A0F1030A7A
:1039F000D4464FF0010A0AFA09FAAAF1010A0AEAC2
:103A0000020A0AFA0CFA4FF0010B0BFA0CFBABF1AD
:103A1000010B0BEA030B4AEA0B042146404601F076
:103A2000A9F8BDE8F09F000000BF00F00702064BB8
:103A300019684FF6FF031940044B0B4343EA022178
:103A4000014B196000BF70470CED00E00000FA0563
:103A50002DE9F04385B0064642A30FCB01AC0FC45D
:103A600044A0006800904FF00008002500270024C3
:103A7000A146042E36D004DC012E3BD0022E6BD1A1
:103A80005FE0082E32D0102E66D13B4844680068B3
:103A900000F0807000B301A8C4F38341475C04F4D4
:103AA000803070B134484068C0F340401DF8008059
:103AB00004F4803040B13148B0FBF8F000FB07F56A
:103AC00002E02F4807FB00F52B48406800F4800017
:103AD000B0F5800F01D1A94603E068000321B0FBD7
:103AE000F1F93AE000F0D2F9814636E000F0CEF983
:103AF000814632E02048046A04F44070B0F5807FCB
:103B000005D104F0020010B14FF4004918E004F4AC
:103B10004070B0F5007F07D11748406A00F00200FE
:103B200010B149F640490BE004F44070B0F5407F15
:103B300006D11148006800F4003008B14FF2244962
:103B40000BE000F093F90C494968C1F38131491C3D
:103B50004900B0FBF1F900E000BF00BF484605B0E6
:103B6000BDE8F08302030405060708090A0B0C0DE3
:103B70000E0F1010010200000010024000127A0027
:103B800000093D00F8B5044600260025207800F025
:103B9000010000286BD000274348C06900F0805026
:103BA00070B900BF4048C06940F080503E49C861CC
:103BB0000846C06900F08050009000BF00BF012798
:103BC0003A48006800F48070B0B93848006840F4A2
:103BD000807036490860FFF78BFE064606E0FFF767
:103BE00087FE801B642801D90320F8BD2F48006898
:103BF00000F480700028F2D02B48006A00F4407571
:103C00002DB3A08800F44070A84220D02648006A56
:103C100020F44075012026490860002008602248F1
:103C2000056205F0010090B1FFF762FE064608E06C
:103C3000FFF75EFE801B41F28831884201D90320E4
:103C4000D3E71948006A00F002000028F0D01648B7
:103C5000006A20F440706168084313490862012F2C
:103C600004D10846C06920F08050C86100BF2078A8
:103C700000F00200022807D10B48406820F44040C1
:103C8000A168084308494860207800F01000102817
:103C900007D10548406820F4800061690843024963
:103CA00048600020A1E700000010024000700040C2
:103CB0004004424270B504460D460CB9012070BD67
:103CC0005A48006800F00700A8420ED25748006822
:103CD00020F007002843554908600846006800F0B6
:103CE0000700A84201D00120E9E7207800F0020097
:103CF00002281DD1207800F00400042805D14C488A
:103D0000406840F4E0604A494860207800F00800CC
:103D1000082805D14648406840F46050444948604E
:103D20004348406820F0F000A168084340494860DB
:103D3000207800F0010078B36068012806D13C4883
:103D4000006800F4003090B90120B8E760680228EC
:103D500006D13748006800F0007040B90120AEE796
:103D60003348006800F0020008B90120A7E7304896
:103D7000406820F00300616808432D494860FFF760
:103D8000B7FD064609E0FFF7B3FD801B41F288311D
:103D9000884202D9032092E707E02548406800F0F6
:103DA0000C006168B0EB810FEDD12048006800F095
:103DB0000700A8420ED91D48006820F007002843DC
:103DC0001A4908600846006800F00700A84201D0C0
:103DD000012074E7207800F00400042807D114487B
:103DE000406820F4E060E1680843114948602078A9
:103DF00000F00800082808D10D48406820F4605001
:103E0000216940EAC1000A49486000F03FF80849CA
:103E10004968C1F30311074A515CC840064908606C
:103E200006480068FFF78AFD002048E700200240AE
:103E300000100240E4BD000810000020280000200F
:103E400001480068704700001000002000B5FFF72F
:103E5000F7FF04494968C1F30221034A515CC84095
:103E600000BD000000100240F4BD000800B5FFF7DF
:103E7000E7FF04494968C1F3C221034A515CC840C5
:103E800000BD000000100240F4BD0008F0B585B090
:103E90000FF26C0C9CE8E01001A8A0E8E0101CA553
:103EA0002D68009500210022002300240020194DD8
:103EB000696801F00C05F5B1042D02D0082D19D167
:103EC00001E0154819E001ADC1F38346AC5D01F492
:103ED000803555B10F4D6D68C5F340451DF805207F
:103EE0000D4D6543B5FBF2F302E00C4D04FB05F309
:103EF000184602E000BF084800BF00BF05B0F0BD93
:103F000002030405060708090A0B0C0D0E0F10101A
:103F1000010200000010024000127A0000093D007A
:103F2000F8B504460CB90120F8BD207800F0010076
:103F3000002878D0F848406800F00C0004280CD025
:103F4000F548406800F00C00082811D1F24840689C
:103F500000F48030B0F5803F0AD1EF48006800F4EB
:103F6000003000285FD0606800285CD10120DBE7CA
:103F700000BF6068B0F5803F06D1E748006840F4B4
:103F80008030E549086028E0606858B9E248006878
:103F900020F48030E04908600846006820F4802062
:103FA00008601AE06068B0F5A02F0BD1DA4800680D
:103FB00040F48020D84908600846006840F480300A
:103FC00008600AE0D448006820F48030D2490860D4
:103FD0000846006820F48020086000BF606888B14F
:103FE000FFF786FC054606E0FFF782FC401B6428CD
:103FF00001D9032098E7C848006800F40030002881
:10400000F2D010E0FFF774FC054606E0FFF770FC05
:10401000401B642801D9032086E7BF48006800F4EC
:1040200000300028F2D1207800F00200022857D199
:10403000B948406800F00C0050B1B748406800F043
:104040000C00082818D1B448406800F4803098B9B2
:10405000B148006800F0020020B12069012801D0B9
:10406000012061E7AC48006820F0F800616940EA8F
:10407000C100A949086033E02069E8B10120A749DF
:104080000860FFF735FC054606E0FFF731FC401BF2
:10409000022801D9032047E79F48006800F002008A
:1040A0000028F2D09C48006820F0F800616940EADE
:1040B000C1009949086013E0002098490860FFF7A3
:1040C00017FC054606E0FFF713FC401B022801D948
:1040D000032029E79048006800F002000028F2D190
:1040E000207800F0080008282DD1A069B8B101207F
:1040F0008B490860FFF7FCFB054606E0FFF7F8FB7D
:10410000401B022801D903200EE78348406A00F0D3
:1041100002000028F2D0012000F094FB13E0002000
:104120007F490860FFF7E4FB054606E0FFF7E0FB88
:10413000401B022801D90320F6E67748406A00F0C8
:1041400002000028F2D1207800F00400042873D186
:1041500000277148C06900F0805070B900BF6E48F8
:10416000C06940F080506C49C8610846C06900F0E1
:104170008050009000BF00BF01276A48006800F42B
:104180008070B0B96748006840F480706549086085
:10419000FFF7AEFB054606E0FFF7AAFB401B6428CD
:1041A00001D90320C0E65F48006800F48070002851
:1041B000F2D000BFE068012806D15748006A40F0FD
:1041C00001005549086227E0E06858B95248006A82
:1041D00020F00100504908620846006A20F00400FF
:1041E000086219E0E06805280BD14B48006A40F0EE
:1041F0000400494908620846006A40F0010008626C
:104200000AE04548006A20F0010043490862084678
:10421000006A20F00400086200BFE068A0B1FFF768
:1042200067FB054609E0FFF763FB401B41F288315D
:10423000884202D9032077E622E03748006A00F07E
:1042400002000028EFD012E0FFF752FB054608E01D
:10425000FFF74EFB401B41F28831884201D9032011
:1042600062E62D48006A00F002000028F0D1012F1C
:1042700005D12948C06920F080502749C86100BF96
:10428000E069C8B32448406800F00C00082860D0FA
:10429000E069022848D1002020490866FFF728FB82
:1042A000054606E0FFF724FB401B022801D9032046
:1042B0003AE61948006800F000700028F2D1206A40
:1042C000B0F5803F07D11448406820F40030A16861
:1042D000084311494860D4E9080108430E49496878
:1042E00021F4741108430C49486001200B49086609
:1042F000FFF7FEFA054607E03DE0FFF7F9FA401B3D
:10430000022801D903200FE60348006800F000707E
:104310000028F2D02FE000000010024000004242CE
:104320008004424200700040002014490866FFF7F4
:10433000DFFA054606E0FFF7DBFA401B022801D949
:104340000320F1E50E48006800F000700028F2D16B
:1043500011E0E069012800D1E6E50948466806F465
:104360008031206A814204D106F47011606A814272
:1043700001D00120D8E50020D6E50000000042422F
:104380000010024070B504460E4615461CB1A069E7
:10439000B0F5807F01D1012070BD94F8410028B9AB
:1043A000002084F84000204600F020F804F10801C5
:1043B0002068FEF781FC3146A2682068FEF7B8FC51
:1043C0002946236BD4E90102FEF754FCA16820685A
:1043D00050F8210040F00100A268216841F8220055
:1043E000012084F841000020D6E7000010B586B017
:1043F000044600BF1E48406940F480701C49486173
:104400000846406900F48070019000BF00BF00BF03
:104410000846806940F0200088610846806900F005
:104420002000019000BF00BF00BF0846806940F037
:10443000400088610846806900F04000019000BF9C
:1044400000BF4CF203700290022003900120049000
:104450000320059002A90748FFF79CF84FF68070EB
:10446000029002A90448FFF795F806B010BD0000BD
:1044700000100240001401400018014070B50446CD
:104480002546681EB0F1807F01D301200FE0681E31
:104490004FF0E02148610F214FF0FF3000F06AFB40
:1044A00000204FF0E021886107200861002070BDE6
:1044B000704700002DE9F047044620680568206831
:1044C000C668206847694FF00008C14605F00F082C
:1044D000B8F1000F0AD105F0200038B106F0200035
:1044E00020B1204600F0F2F9BDE8F087B8F1000FE6
:1044F00071D007F0010018B906F4907000286AD056
:1045000005F0010030B106F4807018B1E06B40F0A6
:104510000100E06305F0040030B107F0010018B1BC
:10452000E06B40F00200E06305F0020030B107F0FC
:10453000010018B1E06B40F00400E06305F00800F2
:1045400048B106F0200010B907F0010018B1E06B87
:1045500040F00800E063E06B68B305F0200028B18C
:1045600006F0200010B1204600F0B0F92068406944
:10457000C0F38019E06B00F0080010B9B9F1000F2A
:1045800022D0204600F082F92068406900F0400007
:10459000B0B12068406920F0400021684861606B3C
:1045A00050B11848616B4863606BFEF78BFE10B129
:1045B000606B416B88470CE02046FFF779FF08E00D
:1045C0002046FFF775FF04E02046FFF771FF00204B
:1045D000E06389E7FFE705F0800030B106F0800076
:1045E00018B1204600F040FA7EE705F0400030B1F7
:1045F00006F0400018B1204600F058F974E700BFFB
:1046000072E700007948000810B504460CB9012093
:1046100010BDA06900B100E000BF94F8390028B9CE
:10462000002084F83800204600F028F8242084F880
:1046300039002068C06820F400502168C860204616
:1046400000F094F92068006920F490402168086126
:104650002068406920F02A00216848612068C0680D
:1046600040F400502168C8600020E063202084F8F6
:10467000390084F83A000020CAE7000010B586B07F
:1046800004462849206888424AD100BF00BF264816
:10469000806940F00800244988610846806900F07C
:1046A0000800019000BF00BF00BF00BF00BF084668
:1046B000806940F0080088610846806900F00800C1
:1046C000019000BF00BF00BF00BF00BF0846C06927
:1046D00040F48020C8610846C06900F48020019041
:1046E00000BF00BF00BF0815029002200390012008
:1046F00004900320059002A90C48FEF74BFF4FF4ED
:10470000006002900020039002A90848FEF742FFD3
:104710002720FFF73AF9032211462720FFF745F932
:1047200006B010BD0048004000100240000C0140DF
:1047300010B5034693F83A0020282FD101B10AB9E9
:10474000012010BD00BF93F83800012801D10220DC
:10475000F7E7012083F8380000BF99629A85DA856F
:104760000020D863222083F83A0000BF002083F89D
:10477000380000BF1868C06840F480701C68E060B2
:104780001868406940F001001C6860611868C068E2
:1047900040F020001C68E0600020D2E70220D0E753
:1047A00010B5044613492068884221D11248008878
:1047B00000F4004090B9114800780F490988C1F30E
:1047C0000D010F4A50540C480088401C0A490880CB
:1047D0000C480088401C0B49088004E00020064972
:1047E000088008490880012204490748FFF7A0FF14
:1047F00010BD0000004800401C00002020000020E8
:10480000180100201E00002018050020704700003D
:104810000EB50CE01F2006A10C221346CDE90021A5
:104820000290F02240F20911142004F017FDF1E784
:1048300048415244204552524F52000000BFFEE70B
:104840007047704708B508490968C9084FF47A727B
:10485000B1FBF2F14143009100BF00BF00994A1E35
:1048600000920029F9D108BD10000020704710B552
:10487000FFF744F810BD704770B505466C6A00201C
:10488000E085E0842046FFF713FE70BD0168C9682B
:1048900021F490710268D1600168496921F0010139
:1048A00002685161202180F83A10704710B5044623
:1048B0002068C06820F040002168C860202084F88B
:1048C00039002046FFF7A2FF002010BD70B5044656
:1048D00094F83A00222847D1A068B0F5805F0CD147
:1048E000206950B90025A66A20684068C0F3080016
:1048F0003080A06A801CA06215E0A56A0026A0682E
:10490000B0F5805F03D0A06828B9206918B9206885
:104910004068287004E02068406800F07F0028703C
:10492000A06A401CA062E08D401E80B2E085C8B93C
:104930002068C06820F020002168C8602068C06836
:1049400020F480702168C8602068406920F0010070
:1049500021684861202084F83A002046FFF720FFB4
:10496000002070BD0020FCE70220FAE770B5044685
:104970002168096921F44051E268114322681161FC
:104980002269A1681143626941EA02052168C96888
:1049900041F20C62914329432268D1602168496940
:1049A00021F44071A2691143226851612D4A2168A6
:1049B000914202D1FFF75AFA01E0FFF747FA00EB04
:1049C000C00101EB001162689200B1FBF2F100EB53
:1049D000C00202EB001263689B00B2FBF3F2642397
:1049E000B2FBF3F202EBC20303EB0212A1EB820172
:1049F000322202EB01116422B1FBF2F101F0F0016D
:104A000000EBC00202EB001263689B00B2FBF3F202
:104A10006423B2FBF3F201EB021200EBC00101EBE5
:104A2000001163689B00B1FBF3F100EBC00303EBE3
:104A300000136668B600B3FBF6F36426B3FBF6F327
:104A400003EBC30606EB0313A1EB8301322303EB55
:104A500001116423B1FBF3F101F00F01114422684D
:104A6000916070BD00380140014691F8390021285D
:104A700028D18868B0F5805F0BD1086948B90A6A07
:104A80001088C0F308000B685860086A801C086230
:104A900005E00B6A581C086218780B685860C88CCF
:104AA000401E80B2C88458B90868C06820F08000F1
:104AB0000B68D8600868C06840F040000B68D86098
:104AC000002070470220FCE708B514480068006821
:104AD000C0F30010F0B100BF002000900F48006844
:104AE000006800900D4800684068009000BF00BF5B
:104AF0000BA10E48FBF708FE30B10D48008840F4CA
:104B000000400B49088005E00A48008840F4004056
:104B1000084908800148FFF7CDFC08BD18050020B2
:104B20004D515454535542524543560018010020EC
:104B30001E0000201C00002000BFFEE7490050EAD4
:104B4000C12018BF04204A0D18BF40F0010040F2F8
:104B5000FF72B2EB515F08BF40F00200012808BFAE
:104B60000520704702480068C0F30220704700002B
:104B70000CED00E010B5002804DB0A07130E054A0F
:104B8000135406E00A07140E034A00F00F031B1F1C
:104B9000D45410BD00E400E018ED00E040F2013212
:104BA00000204FF0E04107F0D1B80000024A002099
:104BB000110707F0CBB8000001FDFFFF10B5044658
:104BC000D1E9000100F002F8206010BDF8B50446FC
:104BD0000D466A4601F006F800987E3000900028E5
:104BE0001EDC002213462046294606F08BFA17D019
:104BF000002140F608004FF00000064620462946F6
:104C000006F092F9044640F6080006EA00014FF06B
:104C1000000034F0004004BF0220FDF77CF829E0DA
:104C20000098FF2828DB002108464FF0000000F420
:104C30004006002213462046294606F061FC8CBF40
:104C4000002501250220FDF766F84FF0FF4446B12C
:104C5000002D0CBF4FF400004FF48000B04218BF8D
:104C6000084C042108464FF00000002D04BF84F0DA
:104C70000040F8BD2046F8BD20462946BDE8F84072
:104C800006F052B9FFFF7F7F10B504460A46D4E90B
:104C90000003194604F0CEFBC4E9000110BD303812
:104CA0000A2801D2012070470020704700BF7047DA
:104CB00000BF70471249096821F00101104A1160D4
:104CC0001049896821F001010E4A916000BF0D4929
:104CD000896801F001010029F9D10A49C860896891
:104CE00041F00101074A91600549096841F001015D
:104CF000034A11601146096841F480011160704750
:104D0000082401400000024001B58EB0182104A81B
:104D1000FBF74AFE002001900290039000BF00BF05
:104D20004848806940F400704649886108468069B7
:104D300000F40070009000BF00BF00BF00BF084635
:104D4000806940F0040088610846806900F0040032
:104D5000009000BF00BF00BF0846406940F001005E
:104D600048610846406900F00100009000BF00BFA4
:104D7000022004908003069004A8FEF703FF302071
:104D80000A9003200B900AA92F48FEF703FC2F4836
:104D90002F4908600020486000212D488160802153
:104DA000C1604900016189004161002181614FF4C6
:104DB0008051C161FEF75AFB00BF254825490862B2
:104DC00008462349486200BF234822490860002062
:104DD00048604FF480711F488160012101730221F6
:104DE00001610021017581614FF46021C161FEF70D
:104DF000F7F81848FDF7BEFF04200190012002904B
:104E000001A91448FEF738F805200190022002900D
:104E100001A91048FEF730F8002206210B20FEF70A
:104E2000C4FD0B20FEF7B1FD00230B494C310848AF
:104E30000E9AFEF761FB00220EA90648FEF782F9E2
:104E40000FB000BD00100240000801400800024001
:104E5000B0050020F4050020002401402DE9F041B8
:104E600005462846FBF791FC0646012101EB46006A
:104E7000FBF7EDF90446002700200BE0295C2C2904
:104E800003D15C2339467F1C63542B5C39467F1C5D
:104E90006354401CB042F1DB0020E0552046BDE8E1
:104EA000F08170B505460C46002614B10DB1A5423F
:104EB00001D1002070BDAE6826B9AC6064600020EE
:104EC000206007E0706828B12146706805F0F0FEA8
:104ED000A86844600120EDE72DE9F04705460E463D
:104EE00014461F46DDF820904FF00008C2461DB161
:104EF00016B10CB1A54202D10020BDE8F087B9F18E
:104F0000000F07D0304600F0B7F98046E06840F463
:104F1000007A0CE03946304600F06EF98046B8F170
:104F2000000F01D10020E8E7E06820F4007AA089B2
:104F300000F4007020B9206A10B1206A79688847AF
:104F4000C4F82080C4F80CA021462846FFF7A9FF2A
:104F5000D3E7014609B1086808B90020704719B1C4
:104F6000D1E90120904201D30846F7E702E08868C2
:104F7000401C886041B1D1E90120904204D28A6886
:104F80000868805C2028F2DDD1E90120904202D13E
:104F90008868401E88600846E0E700002DE9F84375
:104FA00006460F4614461D462046294600F014F8D2
:104FB00080460020074B4246394600903046FFF7B6
:104FC0008BFF10B14046BDE8F883404600F042F840
:104FD0000020F8E74400002070B505460E4613484F
:104FE00000F06DF80446F4B10820E060C4E906560C
:104FF0000F4A104B2846314606F082FA03D86FF06C
:10500000004060610FE000220B4B2846314606F05D
:105010003DF903D84FF00040606104E02846314676
:1050200006F0ACF86061204670BD0000440000202E
:105030000000C0FFFFFFDF410000E0C110B50448E1
:1050400000F03DF804460CB14020E060204610BD61
:105050004400002070B50446002522E02568A089A0
:1050600000F4807020B9A06810B1A068FFF7F2FFCB
:10507000A08900F4807028B9206918B10A4A206913
:1050800051688847A08900F4007028B9206A18B1D7
:10509000054A206A51688847034841682046884786
:1050A0002C46002CDAD170BD4400002070B50446B7
:1050B0000D4601222946204600F0C2FD70BD70B5A4
:1050C000044628202168884705461DB12821284626
:1050D000FBF76AFC284670BD10B504460022114655
:1050E000204600F06BF810BD2DE9F0478AB0044669
:1050F0000E46154698461C2103A8FBF755FC0027D1
:1051000000202C490860486004B106B932E00394DD
:10511000049600200590284A07CA07AB07C3264813
:10512000FFF7CDFF074607B924E003A805F044FCCC
:105130008246FFF70EFF81464946384604F092FF4B
:1051400000B917E0B8F1000F0BD003A8FFF701FF7B
:10515000DDE90410884203D205990398405C00B150
:1051600008E01DB1059903980844286038460AB044
:10517000BDE8F08717B13846FFF76CFFC4B1019462
:1051800000200290DDE90410884202D205980290C6
:1051900004E0049810B10498401E02901DB1DDE9AE
:1051A0000101084428600348DDE9011206C000BF80
:1051B0000020DCE73C000020440000202DE9F04105
:1051C00004460D46164614B90020BDE8F08120467D
:1051D000FBF7DBFA471C33462A4639462046FFF7E1
:1051E00083FFF2E710B50446024A0021204604F08E
:1051F000D7FF10BD440000202DE9F04104460D46C4
:105200000026002714B90020BDE8F0812046FBF7F6
:10521000BCFA461C30462968884707460FB900206B
:10522000F2E7324621463846FBF725FB3846EBE7E6
:1052300070B504460D4604B10DB9012070BDAC42F5
:1052400001D10020FAE705E0207808B90020F5E751
:10525000641C6D1C2078FBF7ACF806462878FBF739
:10526000A8F88642F0D02078FBF7A3F80646287805
:10527000FBF79FF8301AE1E7704700002DE9FC5F6B
:1052800004460D4616461F4627F00043B24625F059
:1052900000405246CDE900402046019906F030F921
:1052A00003D225F00041204602E027F000413046BD
:1052B0008046894600220D4B4046494606F022F8BA
:1052C00082468B4632463B462046294606F04EF93A
:1052D00021F0004152465B46CDE9000105F0D6FFC2
:1052E00002D80120BDE8FC9F0020FBE70000B03C95
:1052F0002DE9FE4F4FF4784088A10C221346CDE9EA
:1053000000210290F0220A21142003F0A7FF864911
:10531000864800F0E8F91F200C210223CDE9001097
:10532000824802781921322003F04CFF1F200C2103
:105330000223CDE900107C4802782821322003F0B6
:1053400041FF4FF4784075A10C221346CDE90021AE
:105350000290F0220A21142003F080FF74480078A4
:1053600001287DD14FF4784072A10C221346CDE97B
:1053700000210290F0223721142003F06FFF4FF438
:1053800078406DA10C221346CDE900210290F02255
:105390006421142003F062FF00249AE04FF000091A
:1053A000002508E0022000FB0540654931F81000A7
:1053B0008144681C85B2322DF4DB3220B9FBF0F059
:1053C00086B21F2000210C22CDE900210290C4EBFF
:1053D000041202EB4202463291B204EB440244232F
:1053E00003EB820290B20423324603F06CFF304696
:1053F00006F016FB834606F0A3F907464FF0663227
:10540000504B05F07FFFCDE9000105F08DFD824690
:10541000504606F0E5FA86B21F2000210C22CDE9A5
:1054200000210290C4EB041202EB4202553291B209
:1054300004EB4402442303EB820290B20123324680
:1054400003F041FF304606F0EBFA0746514606F0FE
:10545000C7FB82463C49504606F0F6FA824600E019
:1054600040E0504606F0BCFA07461F2080210C227F
:10547000CDE900210290C4EB041202EB4202553246
:1054800091B204EB4402502303EB820290B2032357
:105490003A4603F018FF6CB12C49504606F0D4FA96
:1054A00080462B4906F0DAF9074606F099FA2949B1
:1054B00008800CE02549504606F0C6FA804624498B
:1054C00006F0CCF9074606F08BFA23490880601CE9
:1054D00084B2022CFFF662AF0020154908706420E8
:1054E000FFF7E8FB4FF4784012A10C221346CDE9F8
:1054F00000210290F0223721142003F0AFFE4FF478
:1055000078400DA10C221346CDE900210290F02233
:105510006421142003F0A2FEBDE8FE8F44485431FC
:1055200031204F4B0000000001000020000000204F
:10553000390000204D5139004D5131333500000004
:105540005000002066664A3F00007A4400404E4505
:1055500000F07F450400002006000020014908609B
:10556000704700001400002010B504464FF47A7113
:1055700004FB01F000F002F810BD000070B5034616
:1055800000224FF0E02675690D4E366803FB06F4E5
:105590004FF0E026B16910E04FF0E026B069884294
:1055A0000BD0884202D20E1A324402E02E1A0E4468
:1055B00032440146A24200D300E0EDE700BF70BDD7
:1055C0001400002070B50024002504E0601CC4B263
:1055D0000120FFF7D3FF4FF400610F48FEF77AF97F
:1055E00008B1642CF2DB642C01DB012511E00024FE
:1055F00004E0601CC4B20120FFF7C0FF4FF400615B
:105600000548FEF767F908B9642CF2DB642C00DB6F
:105610000125284670BD00000020014000B585B07E
:1056200000BF00BF0F48806940F480700D49886159
:105630000846806900F48070009000BF00BF00BF82
:10564000C8140190112002900120039003200490BF
:1056500001A90548FDF79EFF00F072F8FFF7B2FFC1
:1056600005B000BD001002400020014010B500242C
:1056700004E0601CC4B20120FFF780FF4FF400611A
:105680001048FEF727F908B1642CF2DB002404E08F
:10569000601CC4B20120FFF771FF4FF4006109489C
:1056A000FEF718F908B9642CF2DB2820FFF766FF33
:1056B0004FF400610348FEF70DF908B1012010BD59
:1056C0000020FCE70020014070B50024002506E022
:1056D0006006040EFFF7CAFF0443681CC5B2082D1C
:1056E000F6DB204670BD7CB505460E4600F028F876
:1056F000FFF768FFF8B9002405E0FFF7E5FF0DF8B4
:105700000400601CC4B2052CF7DB9DF800009DF876
:10571000011008449DF8021008449DF80310084445
:105720009DF80410884208D19DF8000030709DF863
:105730000200287001E001207CBD0020FCE7000091
:1057400010B500BF00224FF400610948FEF7CAF807
:1057500000BF1420FFF708FF00BF0122D102044858
:10576000FEF7C0F800BF1E20FFF708FF10BD0000C5
:10577000002001402DE9F04104460D460026002797
:105780000CB1206810B90020BDE8F081606828B134
:10579000D4E90110884201D30020F5E7B5F1004FAC
:1057A00001D30020F0E7A068401C05446068A842CF
:1057B00003D3A16820680844E6E7206908B1002007
:1057C000E2E7B5F1804F07D3B5F1004F02D26FF099
:1057D000004702E00020D7E76F00206A60B1394639
:1057E000226A206890470646DEB9E169206888474A
:1057F000002060602060C7E73846A16988470646F8
:1058000036B9E16920688847002060602060BBE706
:10581000A068421C30462168FBF72DF8E16920683A
:10582000884767602660A0683044ADE72DE9F04105
:1058300005462846FAF7A9FF0646012101EB460076
:10584000FAF705FD0446002700200BE0295C222919
:1058500003D15C2339467F1C63542B5C39467F1C83
:105860006354401CB042F1DB2846FAF71FFD0020CC
:10587000E0552046BDE8F08110B5184C00BF32223B
:1058800017A1204600F034F80028F8D13220FFF7A5
:105890006BFE144C00BF322211A1204600F028F804
:1058A0000028F8D13220FFF75FFE0F4C00BF3222F4
:1058B0000BA1204600F01CF80028F8D13220FFF799
:1058C00053FE0A4C00BF322205A1204600F010F81A
:1058D0000028F8D13220FFF747FE10BD4CF0000839
:1058E0004F4B0000C8F0000878F1000830F10008C4
:1058F0002DE9F04105460E461446012700202349B4
:10590000088040F2FF112248FBF72CF8294621A01D
:10591000FAF75CFD002C2DD025E00A20FFF724FECD
:105920001A48008800F40040E8B131461848FAF7F8
:10593000EBFE08B100271AE017A11548FAF7E4FEBC
:1059400040B14FF4FA70FFF70FFE294611A0FAF7A5
:105950003DFD08E000200D49088040F2FF110C4891
:10596000FBF700F80127601E80B2041ED5D100BFEE
:1059700004B9012700200549088040F2FF110448BE
:10598000FAF7F0FF3846BDE8F08100001C00002067
:1059900018010020257300006275737920702E2E87
:1059A0002E00000010B500BF4FF4FA7215A117A029
:1059B000FFF79EFF0028F7D16420FFF7D5FD00BF59
:1059C000322215A115A0FFF793FF0028F8D164201B
:1059D000FFF7CAFD00BF32220FA112A0FFF788FF18
:1059E0000028F8D16420FFF7BFFD00BFC82211A135
:1059F00013A0FFF77DFF0028F8D16420FFF7B4FD66
:105A000010BD0000726561647900000041542B52A2
:105A100053540D0A000000004F4B00004154453024
:105A20000D0A000041542B43574D4F44453D310D65
:105A30000A0000005749464920474F54204950006A
:105A400041542B43574A41503D22554E494F4E4DEC
:105A5000414E2D35363333222C22313536323368E0
:105A6000676764220D0A000010B5ADF5007D04469D
:105A70002046FFF7DBFE04464FF4007212496846E9
:105A8000FAF73EFF21466846FAF7E9FE0FA168469D
:105A9000FAF7E5FE2046FAF709FC00BF32220EA114
:105AA0006846FFF725FF0028F8D13220FFF75CFD9C
:105AB0006846FAF7FBFB40F2FF116846FAF774FFFD
:105AC00000200DF5007D10BD7CED00087D222C30FE
:105AD0002C300D0A000000004F4B00002DE9F04172
